{
  "contractName": "ZkSubscriber",
  "abi": [
    {
      "constant": true,
      "inputs": [],
      "name": "JOIN_SPLIT_PROOF",
      "outputs": [
        {
          "name": "",
          "type": "uint24"
        }
      ],
      "payable": false,
      "stateMutability": "view",
      "type": "function"
    },
    {
      "constant": true,
      "inputs": [],
      "name": "ZERO_VALUE_NOTE_HASH",
      "outputs": [
        {
          "name": "",
          "type": "bytes32"
        }
      ],
      "payable": false,
      "stateMutability": "view",
      "type": "function"
    },
    {
      "constant": true,
      "inputs": [
        {
          "name": "",
          "type": "bytes32"
        },
        {
          "name": "",
          "type": "address"
        }
      ],
      "name": "confidentialApproved",
      "outputs": [
        {
          "name": "",
          "type": "bool"
        }
      ],
      "payable": false,
      "stateMutability": "view",
      "type": "function"
    },
    {
      "constant": false,
      "inputs": [
        {
          "name": "_noteHash",
          "type": "bytes32"
        },
        {
          "name": "_spender",
          "type": "address"
        },
        {
          "name": "_status",
          "type": "bool"
        },
        {
          "name": "_signature",
          "type": "bytes"
        }
      ],
      "name": "confidentialApprove",
      "outputs": [],
      "payable": false,
      "stateMutability": "nonpayable",
      "type": "function"
    },
    {
      "constant": false,
      "inputs": [
        {
          "name": "noteHash",
          "type": "bytes32"
        },
        {
          "name": "metadata",
          "type": "bytes"
        }
      ],
      "name": "updateNoteMetaData",
      "outputs": [],
      "payable": false,
      "stateMutability": "nonpayable",
      "type": "function"
    },
    {
      "constant": true,
      "inputs": [],
      "name": "PRIVATE_RANGE_PROOF",
      "outputs": [
        {
          "name": "",
          "type": "uint24"
        }
      ],
      "payable": false,
      "stateMutability": "view",
      "type": "function"
    },
    {
      "constant": true,
      "inputs": [],
      "name": "DIVIDEND_PROOF",
      "outputs": [
        {
          "name": "",
          "type": "uint24"
        }
      ],
      "payable": false,
      "stateMutability": "view",
      "type": "function"
    },
    {
      "constant": true,
      "inputs": [],
      "name": "MINT_PROOF",
      "outputs": [
        {
          "name": "",
          "type": "uint24"
        }
      ],
      "payable": false,
      "stateMutability": "view",
      "type": "function"
    },
    {
      "constant": false,
      "inputs": [
        {
          "name": "_proofData",
          "type": "bytes"
        },
        {
          "name": "_signatures",
          "type": "bytes"
        }
      ],
      "name": "confidentialTransfer",
      "outputs": [],
      "payable": false,
      "stateMutability": "nonpayable",
      "type": "function"
    },
    {
      "constant": true,
      "inputs": [],
      "name": "ace",
      "outputs": [
        {
          "name": "",
          "type": "address"
        }
      ],
      "payable": false,
      "stateMutability": "view",
      "type": "function"
    },
    {
      "constant": false,
      "inputs": [
        {
          "name": "_proof",
          "type": "uint24"
        },
        {
          "name": "_proofOutput",
          "type": "bytes"
        }
      ],
      "name": "confidentialTransferFrom",
      "outputs": [],
      "payable": false,
      "stateMutability": "nonpayable",
      "type": "function"
    },
    {
      "constant": true,
      "inputs": [],
      "name": "BURN_PROOF",
      "outputs": [
        {
          "name": "",
          "type": "uint24"
        }
      ],
      "payable": false,
      "stateMutability": "view",
      "type": "function"
    },
    {
      "constant": true,
      "inputs": [],
      "name": "EIP712_DOMAIN_HASH",
      "outputs": [
        {
          "name": "",
          "type": "bytes32"
        }
      ],
      "payable": false,
      "stateMutability": "view",
      "type": "function"
    },
    {
      "constant": true,
      "inputs": [],
      "name": "linkedToken",
      "outputs": [
        {
          "name": "",
          "type": "address"
        }
      ],
      "payable": false,
      "stateMutability": "view",
      "type": "function"
    },
    {
      "constant": true,
      "inputs": [],
      "name": "scalingFactor",
      "outputs": [
        {
          "name": "",
          "type": "uint256"
        }
      ],
      "payable": false,
      "stateMutability": "view",
      "type": "function"
    },
    {
      "inputs": [
        {
          "name": "_aceAddress",
          "type": "address"
        },
        {
          "name": "_linkedTokenAddress",
          "type": "address"
        },
        {
          "name": "_scalingFactor",
          "type": "uint256"
        }
      ],
      "payable": false,
      "stateMutability": "nonpayable",
      "type": "constructor"
    },
    {
      "anonymous": false,
      "inputs": [
        {
          "indexed": true,
          "name": "aceAddress",
          "type": "address"
        },
        {
          "indexed": true,
          "name": "linkedTokenAddress",
          "type": "address"
        },
        {
          "indexed": false,
          "name": "scalingFactor",
          "type": "uint256"
        },
        {
          "indexed": true,
          "name": "_canAdjustSupply",
          "type": "bool"
        },
        {
          "indexed": false,
          "name": "_canConvert",
          "type": "bool"
        }
      ],
      "name": "CreateZkAsset",
      "type": "event"
    },
    {
      "anonymous": false,
      "inputs": [
        {
          "indexed": false,
          "name": "noteRegistryId",
          "type": "uint256"
        }
      ],
      "name": "CreateNoteRegistry",
      "type": "event"
    },
    {
      "anonymous": false,
      "inputs": [
        {
          "indexed": true,
          "name": "owner",
          "type": "address"
        },
        {
          "indexed": true,
          "name": "noteHash",
          "type": "bytes32"
        },
        {
          "indexed": false,
          "name": "metadata",
          "type": "bytes"
        }
      ],
      "name": "CreateNote",
      "type": "event"
    },
    {
      "anonymous": false,
      "inputs": [
        {
          "indexed": true,
          "name": "owner",
          "type": "address"
        },
        {
          "indexed": true,
          "name": "noteHash",
          "type": "bytes32"
        },
        {
          "indexed": false,
          "name": "metadata",
          "type": "bytes"
        }
      ],
      "name": "DestroyNote",
      "type": "event"
    },
    {
      "anonymous": false,
      "inputs": [
        {
          "indexed": true,
          "name": "owner",
          "type": "address"
        },
        {
          "indexed": false,
          "name": "value",
          "type": "uint256"
        }
      ],
      "name": "ConvertTokens",
      "type": "event"
    },
    {
      "anonymous": false,
      "inputs": [
        {
          "indexed": true,
          "name": "owner",
          "type": "address"
        },
        {
          "indexed": false,
          "name": "value",
          "type": "uint256"
        }
      ],
      "name": "RedeemTokens",
      "type": "event"
    },
    {
      "anonymous": false,
      "inputs": [
        {
          "indexed": true,
          "name": "owner",
          "type": "address"
        },
        {
          "indexed": true,
          "name": "noteHash",
          "type": "bytes32"
        },
        {
          "indexed": false,
          "name": "metadata",
          "type": "bytes"
        }
      ],
      "name": "UpdateNoteMetadata",
      "type": "event"
    },
    {
      "constant": false,
      "inputs": [
        {
          "name": "_proof",
          "type": "uint24"
        },
        {
          "name": "_sender",
          "type": "address"
        },
        {
          "name": "_data",
          "type": "bytes"
        }
      ],
      "name": "validateSubscriptionProof",
      "outputs": [
        {
          "name": "",
          "type": "bool"
        }
      ],
      "payable": false,
      "stateMutability": "nonpayable",
      "type": "function"
    },
    {
      "constant": true,
      "inputs": [
        {
          "name": "sender",
          "type": "address"
        }
      ],
      "name": "isSubscribed",
      "outputs": [
        {
          "name": "",
          "type": "bool"
        }
      ],
      "payable": false,
      "stateMutability": "view",
      "type": "function"
    }
  ],
  "bytecode": "0x608060405234801561001057600080fd5b50604051606080611e848339810180604052606081101561003057600080fd5b50805160208083015160409384015184517f454950373132446f6d61696e2800000000000000000000000000000000000000818501527f737472696e67206e616d652c0000000000000000000000000000000000000000602d8201527f737472696e672076657273696f6e2c000000000000000000000000000000000060398201527f6164647265737320766572696679696e67436f6e74726163740000000000000060488201527f29000000000000000000000000000000000000000000000000000000000000006061820152855160428183030181526062820180885281519186019190912060a28301885260199091527f415a5445435f43525950544f4752415048595f454e47494e450000000000000060829092019190915285518087018752600181527f3100000000000000000000000000000000000000000000000000000000000000908501528551808501919091527fc8066e2c715ce196630b273cd256d8959d5b9fefc55e9e6d999fb0f08bb7f75f81870152600080516020611e648339815191526060820152306080808301919091528651808303909101815260a090910190955284519490920193909320600090815591929183908390839083908390839080600160a060020a03841615610210576001610213565b60005b604080517f454950373132446f6d61696e28000000000000000000000000000000000000006020808301919091527f737472696e67206e616d652c0000000000000000000000000000000000000000602d8301527f737472696e672076657273696f6e2c000000000000000000000000000000000060398301527f6164647265737320766572696679696e67436f6e74726163740000000000000060488301527f29000000000000000000000000000000000000000000000000000000000000006061830152825160428184030181526062830180855281519183019190912060a28401855260089091527f5a4b5f41535345540000000000000000000000000000000000000000000000006082909301929092528251808401845260018082527f3100000000000000000000000000000000000000000000000000000000000000918301919091528351808301939093527f34a1782c7b6da6ed013d1c63b38e9a7204574db51f6df9ff13aa1786590013fd83850152600080516020611e64833981519152606084015230600090811b6080808601919091528551808603909101815260a085018087528151919094012081558154600160a060020a038c8116600160a060020a03199283161793849055600280548d831693168317905560038b90557fa5468ca20000000000000000000000000000000000000000000000000000000090945260a485015260c4840189905287151560e48501528515156101048501529351949550169263a5468ca2926101248084019391929182900301818387803b15801561046457600080fd5b505af1158015610478573d6000803e3d6000fd5b505060408051868152841515602082015281518615159450600160a060020a03808a1694508a16927fca576e79bcb5c4a0045d9d596a80c733c3997559f688f69e5c03bd737d885b86928290030190a45050505050505050505050611982806104e26000396000f3fe608060405234801561001057600080fd5b506004361061010a5760003560e01c806396988498116100a2578063df92462511610071578063df92462514610507578063e306f7791461050f578063e854ac6014610517578063ea12489f146105a1578063ed3437f8146105a95761010a565b806396988498146102de578063a5c8fa841461040b578063b92ae87c1461042f578063cdfea90e146104555761010a565b80632e3b9a3b116100de5780632e3b9a3b1461024f57806349518b28146102c65780638500e1f8146102ce5780638e526d9b146102d65761010a565b80625bf7321461010f578063076160511461012f5780630f4a80fe146101495780631f2ac16a14610189575b600080fd5b6101176105b1565b6040805162ffffff9092168252519081900360200190f35b6101376105b8565b60408051918252519081900360200190f35b6101756004803603604081101561015f57600080fd5b5080359060200135600160a060020a03166105dc565b604080519115158252519081900360200190f35b61024d6004803603608081101561019f57600080fd5b813591600160a060020a03602082013516916040820135151591908101906080810160608201356401000000008111156101d857600080fd5b8201836020820111156101ea57600080fd5b8035906020019184600183028401116401000000008311171561020c57600080fd5b91908080601f0160208091040260200160405190810160405280939291908181526020018383808284376000920191909152509295506105fc945050505050565b005b61024d6004803603604081101561026557600080fd5b8135919081019060408101602082013564010000000081111561028757600080fd5b82018360208201111561029957600080fd5b803590602001918460018302840111640100000000831117156102bb57600080fd5b50909250905061083d565b6101176109f0565b6101176109f7565b6101176109fe565b61024d600480360360408110156102f457600080fd5b81019060208101813564010000000081111561030f57600080fd5b82018360208201111561032157600080fd5b8035906020019184600183028401116401000000008311171561034357600080fd5b91908080601f016020809104026020016040519081016040528093929190818152602001838380828437600092019190915250929594936020810193503591505064010000000081111561039657600080fd5b8201836020820111156103a857600080fd5b803590602001918460018302840111640100000000831117156103ca57600080fd5b91908080601f016020809104026020016040519081016040528093929190818152602001838380828437600092019190915250929550610a05945050505050565b610413610b7c565b60408051600160a060020a039092168252519081900360200190f35b6101756004803603602081101561044557600080fd5b5035600160a060020a0316610b8b565b61024d6004803603604081101561046b57600080fd5b62ffffff823516919081019060408101602082013564010000000081111561049257600080fd5b8201836020820111156104a457600080fd5b803590602001918460018302840111640100000000831117156104c657600080fd5b91908080601f016020809104026020016040519081016040528093929190818152602001838380828437600092019190915250929550610bba945050505050565b610117610e22565b610137610e29565b6101756004803603606081101561052d57600080fd5b62ffffff82351691600160a060020a036020820135169181019060608101604082013564010000000081111561056257600080fd5b82018360208201111561057457600080fd5b8035906020019184600183028401116401000000008311171561059657600080fd5b509092509050610e2f565b610413610f95565b610137610fa4565b6201010181565b7fcbc417524e52b95c42a4c42d357938497e3d199eb9b4a0139c92551d4000bc3c81565b600460209081526000928352604080842090915290825290205460ff1681565b600154604080517ffedee266000000000000000000000000000000000000000000000000000000008152306004820152602481018790529051600092600160a060020a03169163fedee266916044808301926080929190829003018186803b15801561066757600080fd5b505afa15801561067b573d6000803e3d6000fd5b505050506040513d608081101561069157600080fd5b50519050600160ff8216146106df5760405160008051602061189f83398151915281526004018080602001828103825260228152602001806118556022913960400191505060405180910390fd5b604080517f4e6f74655369676e6174757265280000000000000000000000000000000000006020808301919091527f62797465733332206e6f7465486173682c000000000000000000000000000000602e8301527f61646472657373207370656e6465722c00000000000000000000000000000000603f8301527f626f6f6c20737461747573000000000000000000000000000000000000000000604f8301527f2900000000000000000000000000000000000000000000000000000000000000605a8301528251603b818403018152605b83018452805190820120607b830152609b8201889052600160a060020a03871660bb83015260ff841660db808401919091528351808403909101815260fb9092019092528051910120610805818785610faa565b5050506000928352600460209081526040808520600160a060020a039490941685529290529120805460ff1916911515919091179055565b600154604080517ffedee2660000000000000000000000000000000000000000000000000000000081523060048201526024810186905290516000928392600160a060020a039091169163fedee26691604480820192608092909190829003018186803b1580156108ad57600080fd5b505afa1580156108c1573d6000803e3d6000fd5b505050506040513d60808110156108d757600080fd5b5080516060909101519092509050600160ff83161461092f5760405160008051602061189f83398151915281526004018080602001828103825260228152602001806118556022913960400191505060405180910390fd5b600160a060020a038116331461097e5760405160008051602061189f83398151915281526004018080602001828103825260458152602001806118bf6045913960600191505060405180910390fd5b8481600160a060020a03167f5c5b88831bccbd4efdc04b97a0bcb2a743b216c3cc74b4520ca833778ec87dfb868660405180806020018281038252848482818152602001925080828437600083820152604051601f909101601f19169092018290039550909350505050a35050505050565b6201040281565b6201040181565b6201020181565b6001546040517fa2866ea3000000000000000000000000000000000000000000000000000000008152620101016004820181815233602484018190526060604485018181528851606487015288519196600160a060020a03169563a2866ea395948a9390929160840190602085019080838360005b83811015610a92578181015183820152602001610a7a565b50505050905090810190601f168015610abf5780820380516001836020036101000a031916815260200191505b50945050505050600060405180830381600087803b158015610ae057600080fd5b505af1158015610af4573d6000803e3d6000fd5b505050506040513d6000823e601f3d908101601f191682016040526020811015610b1d57600080fd5b810190808051640100000000811115610b3557600080fd5b82016020810184811115610b4857600080fd5b8151640100000000811182820187101715610b6257600080fd5b50509291905050509050610b778183856110cc565b505050565b600154600160a060020a031681565b600160a060020a03811660009081526005602052604081205415610bb157506001610bb5565b5060005b919050565b606080600080610bc985611465565b93509350935093506000610bdc8561148f565b905060005b81811015610c77576000610c03610bfe888463ffffffff61149616565b6114f5565b50600081815260046020908152604080832033845290915290205490925060ff1615156001149050610c6e5760405160008051602061189f83398151915281526004018080602001828103825260318152602001806119046031913960400191505060405180910390fd5b50600101610be1565b506001546040517f977796d200000000000000000000000000000000000000000000000000000000815262ffffff89166004820190815233604483018190526060602484019081528a5160648501528a51600160a060020a039095169463977796d2948d948d94939092909160840190602086019080838360005b83811015610d0a578181015183820152602001610cf2565b50505050905090810190601f168015610d375780820380516001836020036101000a031916815260200191505b50945050505050600060405180830381600087803b158015610d5857600080fd5b505af1158015610d6c573d6000803e3d6000fd5b50505050610d7985611513565b610d82846115f7565b6000821215610dd05782600160a060020a03167ffed3b27b73d78d9d1f344bbbf25f7af35e0ac4d6cf8193604ce18082168e461a836000036040518082815260200191505060405180910390a25b6000821315610e1957604080518381529051600160a060020a038516917f60213c45c34d8b94e495fd5871fdea7a7511f659e884ea25a0c8843b7f98bfad919081900360200190a25b50505050505050565b6201030181565b60005481565b6001546040517fa2866ea300000000000000000000000000000000000000000000000000000000815262ffffff861660048201908152600160a060020a038681166024840152606060448401818152606485018790526000959194929091169263a2866ea3928a928a928a928a9290608401848480828437600081840152601f19601f82011690508083019250505095505050505050600060405180830381600087803b158015610edf57600080fd5b505af1158015610ef3573d6000803e3d6000fd5b505050506040513d6000823e601f3d908101601f191682016040526020811015610f1c57600080fd5b810190808051640100000000811115610f3457600080fd5b82016020810184811115610f4757600080fd5b8151640100000000811182820187101715610f6157600080fd5b50508051602091820120600160a060020a038a16600090815260059092526040909120555060019350505050949350505050565b600254600160a060020a031681565b60035481565b600154604080517ffedee266000000000000000000000000000000000000000000000000000000008152306004820152602481018590529051600092600160a060020a03169163fedee266916044808301926080929190829003018186803b15801561101557600080fd5b505afa158015611029573d6000803e3d6000fd5b505050506040513d608081101561103f57600080fd5b506060015182519091506000901561107057600061105c866116d7565b905061106881856116f8565b915050611073565b50335b600160a060020a03818116908316146110c55760405160008051602061189f83398151915281526004018080602001828103825260288152602001806118776028913960400191505060405180910390fd5b5050505050565b604081015160005b6110dd8561148f565b8110156110c55760606110f6868363ffffffff61149616565b6001546040517f977796d200000000000000000000000000000000000000000000000000000000815262010101600482018181523060448401819052606060248501908152865160648601528651969750600160a060020a039095169563977796d2959394889492939291608490910190602086019080838360005b8381101561118a578181015183820152602001611172565b50505050905090810190601f1680156111b75780820380516001836020036101000a031916815260200191505b50945050505050600060405180830381600087803b1580156111d857600080fd5b505af11580156111ec573d6000803e3d6000fd5b505050506060806000806111ff85611465565b935093509350935060006112128561148f565b11156113ac5760005b6112248561148f565b8110156113aa5760606112378b83611815565b9050600061124e610bfe888563ffffffff61149616565b50604080517f4a6f696e53706c69745369676e617475726528000000000000000000000000006020808301919091527f75696e7432342070726f6f662c0000000000000000000000000000000000000060338301527f62797465733332206e6f7465486173682c000000000000000000000000000000828401527f75696e74323536206368616c6c656e67652c000000000000000000000000000060518301527f616464726573732073656e64657200000000000000000000000000000000000060638301527f290000000000000000000000000000000000000000000000000000000000000060718301528251605281840301815260728301845280519082012060928301526201010160b283015260d2820184905260f282018f90523361011280840191909152835180840390910181526101329092019092528051910120909250905061139f818385610faa565b50505060010161121b565b505b6113b584611513565b6113be836115f7565b600081121561140c5781600160a060020a03167ffed3b27b73d78d9d1f344bbbf25f7af35e0ac4d6cf8193604ce18082168e461a826000036040518082815260200191505060405180910390a25b600081131561145557604080518281529051600160a060020a038416917f60213c45c34d8b94e495fd5871fdea7a7511f659e884ea25a0c8843b7f98bfad919081900360200190a25b50505050506001810190506110d4565b6020810151604082015160608301516080840151928401949190930192600160a060020a03169190565b6020015190565b6020828101519082028301604001518301908210806114ee5760405160008051602061189f83398151915281526004018080602001828103825260228152602001806119356022913960400191505060405180910390fd5b5092915050565b60408101516060820151600160a060020a0390911692909160800190565b60005b61151f8261148f565b8110156115f357600080606061153e610bfe868663ffffffff61149616565b9250925092508183600160a060020a03167febd4bb7b61198df63305dd538f077db9df9b14339d8a6221e301487770d79227836040518080602001828103825283818151815260200191508051906020019080838360005b838110156115ae578181015183820152602001611596565b50505050905090810190601f1680156115db5780820380516001836020036101000a031916815260200191505b509250505060405180910390a3505050600101611516565b5050565b60005b6116038261148f565b8110156115f3576000806060611622610bfe868663ffffffff61149616565b9250925092508183600160a060020a03167f5ffb3072e4515cf3bfae8b16be9dff6313cf7c313a0c26faafe6971d8c7585f1836040518080602001828103825283818151815260200191508051906020019080838360005b8381101561169257818101518382015260200161167a565b50505050905090810190601f1680156116bf5780820380516001836020036101000a031916815260200191505b509250505060405180910390a35050506001016115fa565b60008054604080516119019093526020919091529182526042601e20915290565b6000808251848452602084015160208560808760015afa601c8214601b8314176060841416169250845186146000811461173157611736565b855194505b5050835280801561174e5750600160a060020a038216155b15156114ee57600160a060020a03821615156117b9576040805160008051602061189f833981519152815260206004820152601a60248201527f7369676e657220616464726573732063616e6e6f742062652030000000000000604482015290519081900360640190fd5b8015156114ee576040805160008051602061189f833981519152815260206004820152601960248201527f7369676e6174757265207265636f76657279206661696c656400000000000000604482015290519081900360640190fd5b6060908102919091016020818101516040808401519385015181519384019290925282810193909352818401528151808203909301835260800190529056fe6f6e6c7920756e7370656e74206e6f7465732063616e20626520617070726f766564746865206e6f7465206f776e657220646964206e6f74207369676e2074686973206d65737361676508c379a0000000000000000000000000000000000000000000000000000000007472616e73616374696f6e2073656e64657220646f6573206e6f74206d6174636820746865206f776e6572206f6620746865206e6f7465206265696e67207570646174656473656e64657220646f6573206e6f74206861766520617070726f76616c20746f207370656e6420696e707574206e6f7465415a54454320617272617920696e646578206973206f7574206f6620626f756e6473a165627a7a72305820304ace96a706fc756411db4309bd26e22eba01ccdd6b1b2168854cb42408d3510029c89efdaa54c0f20c7adf612882df0950f5a951637e0307cdcb4c672f298b8bc6",
  "source": "pragma solidity >= 0.5.0 <0.7.0;\n\n\nimport \"@aztec/protocol/contracts/ACE/ACE.sol\";\nimport \"@aztec/protocol/contracts/ERC1724/ZkAsset.sol\";\n\n\ncontract ZkSubscriber is ZkAsset {\n\tmapping(address => bytes32) proofHashes;\n\n\tconstructor(\n\t\taddress _aceAddress, \n\t\taddress _linkedTokenAddress, \n\t\tuint256 _scalingFactor\n\t) public ZkAsset(_aceAddress, _linkedTokenAddress, _scalingFactor) {\n\t}\n\n\tfunction validateSubscriptionProof(uint24 _proof, address _sender, bytes calldata _data) external returns(bool) {\n\t\tbytes memory proofOutputs = ace.validateProof(_proof, _sender, _data);\n\t\t// return proofOutputs;\n\t\t// emit DebugProofs(proofOutputs);\n\t\tbytes32 proofHash = keccak256(proofOutputs);\n\t\t// update mapping\n\t\tproofHashes[_sender] = proofHash;\n\t\treturn true;\n\t}\n\n\tfunction isSubscribed(address sender) public view returns(bool){\n\t\tif(proofHashes[sender] != bytes32(0)) return true;\n\t\treturn false;\n\t}\n}",
  "sourcePath": "/Users/vcrizpy/Desktop/dapps/ethindia2.0/aztec-zk-subscriptions/contracts/ZkSubscriber.sol",
  "compiler": {
    "name": "solc",
    "version": "0.5.4+commit.9549d8ff.Emscripten.clang"
  },
  "schemaVersion": "3.0.6",
  "updatedAt": "2019-08-04T06:44:33.365Z",
  "devdoc": {
    "methods": {
      "confidentialApprove(bytes32,address,bool,bytes)": {
        "details": "Note owner approving a third party, another address, to spend the note on owner's behalf. This is necessary to allow the confidentialTransferFrom() method to be called",
        "params": {
          "_noteHash": "- keccak256 hash of the note coordinates (gamma and sigma)",
          "_signature": "- ECDSA signature from the note owner that validates the confidentialApprove() instruction",
          "_spender": "- address being approved to spend the note",
          "_status": "- defines whether the _spender address is being approved to spend the note, or if permission is being revoked"
        }
      },
      "confidentialTransfer(bytes,bytes)": {
        "details": "Executes a basic unilateral, confidential transfer of AZTEC notes Will submit _proofData to the validateProof() function of the Cryptography Engine.    * Upon successfull verification, it will update note registry state - creating output notes and destroying input notes.",
        "params": {
          "_proofData": "- bytes variable outputted from a proof verification contract, representing transfer instructions for the ACE",
          "_signatures": "- array of the ECDSA signatures over all inputNotes "
        }
      },
      "confidentialTransferFrom(uint24,bytes)": {
        "details": "Executes a value transfer mediated by smart contracts. The method is supplied with transfer instructions represented by a bytes _proofOutput argument that was outputted from a proof verification contract.",
        "params": {
          "_proof": "- uint24 variable which acts as a unique identifier for the proof which _proofOutput is being submitted. _proof contains three concatenated uint8 variables: 1) epoch number 2) category number 3) ID number for the proof",
          "_proofOutput": "- output of a zero-knowledge proof validation contract. Represents transfer instructions for the ACE"
        }
      },
      "updateNoteMetaData(bytes32,bytes)": {
        "details": "Update the metadata of a note that already exists in storage. ",
        "params": {
          "metadata": "- metadata to update the note with. This should be the length of an IES encrypted viewing key, 0x177",
          "noteHash": "- hash of a note, used as a unique identifier for the note"
        }
      }
    }
  },
  "userdoc": {
    "methods": {}
  }
}