{
  "contractName": "SubscriptionsRegistry",
  "abi": [
    {
      "constant": true,
      "inputs": [
        {
          "name": "",
          "type": "address"
        }
      ],
      "name": "platformToSubscriberContract",
      "outputs": [
        {
          "name": "",
          "type": "address"
        }
      ],
      "payable": false,
      "stateMutability": "view",
      "type": "function"
    },
    {
      "constant": false,
      "inputs": [
        {
          "name": "name",
          "type": "string"
        },
        {
          "name": "symbol",
          "type": "string"
        },
        {
          "name": "stake",
          "type": "uint256"
        },
        {
          "name": "platform",
          "type": "address"
        }
      ],
      "name": "createSubscriberContract",
      "outputs": [
        {
          "name": "",
          "type": "address"
        }
      ],
      "payable": false,
      "stateMutability": "nonpayable",
      "type": "function"
    }
  ],
  "bytecode": "0x608060405234801561001057600080fd5b50613ec2806100206000396000f3fe60806040526004361061004c576000357c0100000000000000000000000000000000000000000000000000000000900463ffffffff168063213a336c14610051578063b60f3a161461021a575b600080fd5b34801561005d57600080fd5b506101d86004803603608081101561007457600080fd5b810190808035906020019064010000000081111561009157600080fd5b8201836020820111156100a357600080fd5b803590602001918460018302840111640100000000831117156100c557600080fd5b91908080601f016020809104026020016040519081016040528093929190818152602001838380828437600081840152601f19601f8201169050808301925050505050505091929192908035906020019064010000000081111561012857600080fd5b82018360208201111561013a57600080fd5b8035906020019184600183028401116401000000008311171561015c57600080fd5b91908080601f016020809104026020016040519081016040528093929190818152602001838380828437600081840152601f19601f82011690508083019250505050505050919291929080359060200190929190803573ffffffffffffffffffffffffffffffffffffffff1690602001909291905050506102ab565b604051808273ffffffffffffffffffffffffffffffffffffffff1673ffffffffffffffffffffffffffffffffffffffff16815260200191505060405180910390f35b34801561022657600080fd5b506102696004803603602081101561023d57600080fd5b81019080803573ffffffffffffffffffffffffffffffffffffffff16906020019092919050505061052a565b604051808273ffffffffffffffffffffffffffffffffffffffff1673ffffffffffffffffffffffffffffffffffffffff16815260200191505060405180910390f35b600080858585856102ba61055d565b8080602001806020018581526020018473ffffffffffffffffffffffffffffffffffffffff1673ffffffffffffffffffffffffffffffffffffffff168152602001838103835287818151815260200191508051906020019080838360005b83811015610333578082015181840152602081019050610318565b50505050905090810190601f1680156103605780820380516001836020036101000a031916815260200191505b50838103825286818151815260200191508051906020019080838360005b8381101561039957808201518184015260208101905061037e565b50505050905090810190601f1680156103c65780820380516001836020036101000a031916815260200191505b509650505050505050604051809103906000f0801580156103eb573d6000803e3d6000fd5b5090508073ffffffffffffffffffffffffffffffffffffffff1663f2fde38b336040518263ffffffff167c0100000000000000000000000000000000000000000000000000000000028152600401808273ffffffffffffffffffffffffffffffffffffffff1673ffffffffffffffffffffffffffffffffffffffff168152602001915050600060405180830381600087803b15801561048957600080fd5b505af115801561049d573d6000803e3d6000fd5b50505050806000808573ffffffffffffffffffffffffffffffffffffffff1673ffffffffffffffffffffffffffffffffffffffff16815260200190815260200160002060006101000a81548173ffffffffffffffffffffffffffffffffffffffff021916908373ffffffffffffffffffffffffffffffffffffffff16021790555080915050949350505050565b60006020528060005260406000206000915054906101000a900473ffffffffffffffffffffffffffffffffffffffff1681565b6040516139298061056e8339019056fe60806040523480156200001157600080fd5b506040516200392938038062003929833981018060405260808110156200003757600080fd5b8101908080516401000000008111156200005057600080fd5b828101905060208101848111156200006757600080fd5b81518560018202830111640100000000821117156200008557600080fd5b50509291906020018051640100000000811115620000a257600080fd5b82810190506020810184811115620000b957600080fd5b8151856001820283011164010000000082111715620000d757600080fd5b5050929190602001805190602001909291908051906020019092919050505033600360006101000a81548173ffffffffffffffffffffffffffffffffffffffff021916908373ffffffffffffffffffffffffffffffffffffffff160217905550600360009054906101000a900473ffffffffffffffffffffffffffffffffffffffff1673ffffffffffffffffffffffffffffffffffffffff16600073ffffffffffffffffffffffffffffffffffffffff167f8be0079c531659141344cd1fd0a4f28419497f9722a3daafe3b4186f6b6457e060405160405180910390a38360049080519060200190620001cc92919062000570565b508260059080519060200190620001e592919062000570565b50600073ffffffffffffffffffffffffffffffffffffffff168173ffffffffffffffffffffffffffffffffffffffff16141515156200028c576040517f08c379a00000000000000000000000000000000000000000000000000000000081526004018080602001828103825260168152602001807f506c6174666f726d2063616e2774206265207a65726f0000000000000000000081525060200191505060405180910390fd5b6000733d9819210a31b4961b30ef54be2aed79b9c9cd3b905060606001604051908082528060200260200182016040528015620002d85781602001602082028038833980820191505090505b50905073f5dce57282a584d2746faf1593d3121fcac444dc8160008151811015156200030057fe5b9060200190602002019073ffffffffffffffffffffffffffffffffffffffff16908173ffffffffffffffffffffffffffffffffffffffff168152505060608273ffffffffffffffffffffffffffffffffffffffff1663c2998238836040518263ffffffff167c01000000000000000000000000000000000000000000000000000000000281526004018080602001828103825283818151815260200191508051906020019060200280838360005b83811015620003cb578082015181840152602081019050620003ae565b5050505090500192505050600060405180830381600087803b158015620003f157600080fd5b505af115801562000406573d6000803e3d6000fd5b505050506040513d6000823e3d601f19601f8201168201806040525060208110156200043157600080fd5b8101908080516401000000008111156200044a57600080fd5b828101905060208101848111156200046157600080fd5b81518560208202830111640100000000821117156200047f57600080fd5b5050929190505050905060008160008151811015156200049b57fe5b906020019060200201511415156200051b576040517f08c379a000000000000000000000000000000000000000000000000000000000815260040180806020018281038252601b8152602001807f4661696c656420746f20656e7465722063444149206d61726b6574000000000081525060200191505060405180910390fd5b83600660006101000a81548173ffffffffffffffffffffffffffffffffffffffff021916908373ffffffffffffffffffffffffffffffffffffffff16021790555084600781905550505050505050506200061f565b828054600181600116156101000203166002900490600052602060002090601f016020900481019282601f10620005b357805160ff1916838001178555620005e4565b82800160010185558215620005e4579182015b82811115620005e3578251825591602001919060010190620005c6565b5b509050620005f39190620005f7565b5090565b6200061c91905b8082111562000618576000816000905550600101620005fe565b5090565b90565b6132fa806200062f6000396000f3fe60806040526004361061015f576000357c0100000000000000000000000000000000000000000000000000000000900463ffffffff1680630531b2ad146101f357806306fdde031461024a578063095ea7b3146102da57806318160ddd1461034d57806323b872dd146103785780632a4c0a1a1461040b578063313ce5671461046257806339509351146104935780633a4b66f11461050657806341a7726a146105315780634bde38c81461059a578063591ab5b4146105f157806367ff13871461061c57806370a082311461064b578063715018a6146106b057806378c691ad146106c757806389afcb44146106f65780638da5cb5b1461075f5780638f32d59b146107b657806395d89b41146107e5578063a457c2d714610875578063a9059cbb146108e8578063c4804ef01461095b578063dd62ed3e146109c4578063df3061ed14610a49578063f2fde38b14610a74578063fbaa8b8514610ac5575b6040517f08c379a00000000000000000000000000000000000000000000000000000000081526004018080602001828103825260288152602001807f436f6e747261637420646f65736e277420737570706f7274207265636569766981526020017f6e6720457468657200000000000000000000000000000000000000000000000081525060400191505060405180910390fd5b3480156101ff57600080fd5b50610208610b1c565b604051808273ffffffffffffffffffffffffffffffffffffffff1673ffffffffffffffffffffffffffffffffffffffff16815260200191505060405180910390f35b34801561025657600080fd5b5061025f610b34565b6040518080602001828103825283818151815260200191508051906020019080838360005b8381101561029f578082015181840152602081019050610284565b50505050905090810190601f1680156102cc5780820380516001836020036101000a031916815260200191505b509250505060405180910390f35b3480156102e657600080fd5b50610333600480360360408110156102fd57600080fd5b81019080803573ffffffffffffffffffffffffffffffffffffffff16906020019092919080359060200190929190505050610bd6565b604051808215151515815260200191505060405180910390f35b34801561035957600080fd5b50610362610bed565b6040518082815260200191505060405180910390f35b34801561038457600080fd5b506103f16004803603606081101561039b57600080fd5b81019080803573ffffffffffffffffffffffffffffffffffffffff169060200190929190803573ffffffffffffffffffffffffffffffffffffffff16906020019092919080359060200190929190505050610bf7565b604051808215151515815260200191505060405180910390f35b34801561041757600080fd5b50610420610ca8565b604051808273ffffffffffffffffffffffffffffffffffffffff1673ffffffffffffffffffffffffffffffffffffffff16815260200191505060405180910390f35b34801561046e57600080fd5b50610477610cc0565b604051808260ff1660ff16815260200191505060405180910390f35b34801561049f57600080fd5b506104ec600480360360408110156104b657600080fd5b81019080803573ffffffffffffffffffffffffffffffffffffffff16906020019092919080359060200190929190505050610cc9565b604051808215151515815260200191505060405180910390f35b34801561051257600080fd5b5061051b610d6e565b6040518082815260200191505060405180910390f35b34801561053d57600080fd5b506105806004803603602081101561055457600080fd5b81019080803573ffffffffffffffffffffffffffffffffffffffff169060200190929190505050610d74565b604051808215151515815260200191505060405180910390f35b3480156105a657600080fd5b506105af6113b6565b604051808273ffffffffffffffffffffffffffffffffffffffff1673ffffffffffffffffffffffffffffffffffffffff16815260200191505060405180910390f35b3480156105fd57600080fd5b506106066113dc565b6040518082815260200191505060405180910390f35b34801561062857600080fd5b506106316115b3565b604051808215151515815260200191505060405180910390f35b34801561065757600080fd5b5061069a6004803603602081101561066e57600080fd5b81019080803573ffffffffffffffffffffffffffffffffffffffff1690602001909291905050506118c3565b6040518082815260200191505060405180910390f35b3480156106bc57600080fd5b506106c561190b565b005b3480156106d357600080fd5b506106dc611a48565b604051808215151515815260200191505060405180910390f35b34801561070257600080fd5b506107456004803603602081101561071957600080fd5b81019080803573ffffffffffffffffffffffffffffffffffffffff169060200190929190505050611dc9565b604051808215151515815260200191505060405180910390f35b34801561076b57600080fd5b5061077461208b565b604051808273ffffffffffffffffffffffffffffffffffffffff1673ffffffffffffffffffffffffffffffffffffffff16815260200191505060405180910390f35b3480156107c257600080fd5b506107cb6120b5565b604051808215151515815260200191505060405180910390f35b3480156107f157600080fd5b506107fa61210d565b6040518080602001828103825283818151815260200191508051906020019080838360005b8381101561083a57808201518184015260208101905061081f565b50505050905090810190601f1680156108675780820380516001836020036101000a031916815260200191505b509250505060405180910390f35b34801561088157600080fd5b506108ce6004803603604081101561089857600080fd5b81019080803573ffffffffffffffffffffffffffffffffffffffff169060200190929190803590602001909291905050506121af565b604051808215151515815260200191505060405180910390f35b3480156108f457600080fd5b506109416004803603604081101561090b57600080fd5b81019080803573ffffffffffffffffffffffffffffffffffffffff16906020019092919080359060200190929190505050612254565b604051808215151515815260200191505060405180910390f35b34801561096757600080fd5b506109aa6004803603602081101561097e57600080fd5b81019080803573ffffffffffffffffffffffffffffffffffffffff16906020019092919050505061226b565b604051808215151515815260200191505060405180910390f35b3480156109d057600080fd5b50610a33600480360360408110156109e757600080fd5b81019080803573ffffffffffffffffffffffffffffffffffffffff169060200190929190803573ffffffffffffffffffffffffffffffffffffffff16906020019092919050505061228b565b6040518082815260200191505060405180910390f35b348015610a5557600080fd5b50610a5e612312565b6040518082815260200191505060405180910390f35b348015610a8057600080fd5b50610ac360048036036020811015610a9757600080fd5b81019080803573ffffffffffffffffffffffffffffffffffffffff1690602001909291905050506124e7565b005b348015610ad157600080fd5b50610ada61256f565b604051808273ffffffffffffffffffffffffffffffffffffffff1673ffffffffffffffffffffffffffffffffffffffff16815260200191505060405180910390f35b73f5dce57282a584d2746faf1593d3121fcac444dc81565b606060048054600181600116156101000203166002900480601f016020809104026020016040519081016040528092919081815260200182805460018160011615610100020316600290048015610bcc5780601f10610ba157610100808354040283529160200191610bcc565b820191906000526020600020905b815481529060010190602001808311610baf57829003601f168201915b5050505050905090565b6000610be3338484612587565b6001905092915050565b6000600254905090565b6000610c04848484612808565b610c9d8433610c9885600160008a73ffffffffffffffffffffffffffffffffffffffff1673ffffffffffffffffffffffffffffffffffffffff16815260200190815260200160002060003373ffffffffffffffffffffffffffffffffffffffff1673ffffffffffffffffffffffffffffffffffffffff16815260200190815260200160002054612b2e90919063ffffffff16565b612587565b600190509392505050565b7389d24a6b4ccb1b6faa2625fe562bdd9a2326035981565b60006012905090565b6000610d643384610d5f85600160003373ffffffffffffffffffffffffffffffffffffffff1673ffffffffffffffffffffffffffffffffffffffff16815260200190815260200160002060008973ffffffffffffffffffffffffffffffffffffffff1673ffffffffffffffffffffffffffffffffffffffff16815260200190815260200160002054612bb990919063ffffffff16565b612587565b6001905092915050565b60075481565b6000807389d24a6b4ccb1b6faa2625fe562bdd9a2326035990508073ffffffffffffffffffffffffffffffffffffffff166323b872dd33306007546040518463ffffffff167c0100000000000000000000000000000000000000000000000000000000028152600401808473ffffffffffffffffffffffffffffffffffffffff1673ffffffffffffffffffffffffffffffffffffffff1681526020018373ffffffffffffffffffffffffffffffffffffffff1673ffffffffffffffffffffffffffffffffffffffff1681526020018281526020019350505050602060405180830381600087803b158015610e6757600080fd5b505af1158015610e7b573d6000803e3d6000fd5b505050506040513d6020811015610e9157600080fd5b81019080805190602001909291905050501515610f3c576040517f08c379a00000000000000000000000000000000000000000000000000000000081526004018080602001828103825260268152602001807f4661696c656420746f207472616e73666572204441492066726f6d206d73672e81526020017f73656e646572000000000000000000000000000000000000000000000000000081525060400191505060405180910390fd5b600073f5dce57282a584d2746faf1593d3121fcac444dc90508173ffffffffffffffffffffffffffffffffffffffff1663095ea7b373f5dce57282a584d2746faf1593d3121fcac444dc60006040518363ffffffff167c0100000000000000000000000000000000000000000000000000000000028152600401808373ffffffffffffffffffffffffffffffffffffffff1673ffffffffffffffffffffffffffffffffffffffff16815260200182815260200192505050602060405180830381600087803b15801561100d57600080fd5b505af1158015611021573d6000803e3d6000fd5b505050506040513d602081101561103757600080fd5b810190808051906020019092919050505015156110bc576040517f08c379a000000000000000000000000000000000000000000000000000000000815260040180806020018281038252601d8152602001807f4661696c656420746f20636c6561722044414920616c6c6f77616e636500000081525060200191505060405180910390fd5b8173ffffffffffffffffffffffffffffffffffffffff1663095ea7b373f5dce57282a584d2746faf1593d3121fcac444dc6007546040518363ffffffff167c0100000000000000000000000000000000000000000000000000000000028152600401808373ffffffffffffffffffffffffffffffffffffffff1673ffffffffffffffffffffffffffffffffffffffff16815260200182815260200192505050602060405180830381600087803b15801561117557600080fd5b505af1158015611189573d6000803e3d6000fd5b505050506040513d602081101561119f57600080fd5b81019080805190602001909291905050501515611224576040517f08c379a000000000000000000000000000000000000000000000000000000000815260040180806020018281038252601b8152602001807f4661696c656420746f207365742044414920616c6c6f77616e6365000000000081525060200191505060405180910390fd5b60008173ffffffffffffffffffffffffffffffffffffffff1663a0712d686007546040518263ffffffff167c010000000000000000000000000000000000000000000000000000000002815260040180828152602001915050602060405180830381600087803b15801561129757600080fd5b505af11580156112ab573d6000803e3d6000fd5b505050506040513d60208110156112c157600080fd5b8101908080519060200190929190505050141515611347576040517f08c379a00000000000000000000000000000000000000000000000000000000081526004018080602001828103825260138152602001807f4661696c656420746f206d696e7420634441490000000000000000000000000081525060200191505060405180910390fd5b61135384600754612c43565b6001600860008673ffffffffffffffffffffffffffffffffffffffff1673ffffffffffffffffffffffffffffffffffffffff16815260200190815260200160002060006101000a81548160ff021916908315150217905550600192505050919050565b600660009054906101000a900473ffffffffffffffffffffffffffffffffffffffff1681565b60008073f5dce57282a584d2746faf1593d3121fcac444dc90506115ad611401610bed565b61159f670de0b6b3a76400006115918573ffffffffffffffffffffffffffffffffffffffff166370a08231306040518263ffffffff167c0100000000000000000000000000000000000000000000000000000000028152600401808273ffffffffffffffffffffffffffffffffffffffff1673ffffffffffffffffffffffffffffffffffffffff16815260200191505060206040518083038186803b1580156114a957600080fd5b505afa1580156114bd573d6000803e3d6000fd5b505050506040513d60208110156114d357600080fd5b81019080805190602001909291905050508673ffffffffffffffffffffffffffffffffffffffff1663bd6d894d6040518163ffffffff167c0100000000000000000000000000000000000000000000000000000000028152600401602060405180830381600087803b15801561154857600080fd5b505af115801561155c573d6000803e3d6000fd5b505050506040513d602081101561157257600080fd5b8101908080519060200190929190505050612e0090919063ffffffff16565b612ecd90919063ffffffff16565b612b2e90919063ffffffff16565b91505090565b60006115bd6120b5565b1515611631576040517f08c379a00000000000000000000000000000000000000000000000000000000081526004018080602001828103825260208152602001807f4f776e61626c653a2063616c6c6572206973206e6f7420746865206f776e657281525060200191505060405180910390fd5b600073f5dce57282a584d2746faf1593d3121fcac444dc9050600061171e8273ffffffffffffffffffffffffffffffffffffffff1663bd6d894d6040518163ffffffff167c0100000000000000000000000000000000000000000000000000000000028152600401602060405180830381600087803b1580156116b357600080fd5b505af11580156116c7573d6000803e3d6000fd5b505050506040513d60208110156116dd57600080fd5b8101908080519060200190929190505050611710670de0b6b3a76400006117026113dc565b612e0090919063ffffffff16565b612ecd90919063ffffffff16565b90508173ffffffffffffffffffffffffffffffffffffffff1663a9059cbb600660009054906101000a900473ffffffffffffffffffffffffffffffffffffffff16836040518363ffffffff167c0100000000000000000000000000000000000000000000000000000000028152600401808373ffffffffffffffffffffffffffffffffffffffff1673ffffffffffffffffffffffffffffffffffffffff16815260200182815260200192505050602060405180830381600087803b1580156117e557600080fd5b505af11580156117f9573d6000803e3d6000fd5b505050506040513d602081101561180f57600080fd5b810190808051906020019092919050505015156118ba576040517f08c379a00000000000000000000000000000000000000000000000000000000081526004018080602001828103825260238152602001807f4661696c656420746f207472616e73666572206344414920746f20506c61746681526020017f6f726d000000000000000000000000000000000000000000000000000000000081525060400191505060405180910390fd5b60019250505090565b60008060008373ffffffffffffffffffffffffffffffffffffffff1673ffffffffffffffffffffffffffffffffffffffff168152602001908152602001600020549050919050565b6119136120b5565b1515611987576040517f08c379a00000000000000000000000000000000000000000000000000000000081526004018080602001828103825260208152602001807f4f776e61626c653a2063616c6c6572206973206e6f7420746865206f776e657281525060200191505060405180910390fd5b600073ffffffffffffffffffffffffffffffffffffffff16600360009054906101000a900473ffffffffffffffffffffffffffffffffffffffff1673ffffffffffffffffffffffffffffffffffffffff167f8be0079c531659141344cd1fd0a4f28419497f9722a3daafe3b4186f6b6457e060405160405180910390a36000600360006101000a81548173ffffffffffffffffffffffffffffffffffffffff021916908373ffffffffffffffffffffffffffffffffffffffff160217905550565b6000611a526120b5565b1515611ac6576040517f08c379a00000000000000000000000000000000000000000000000000000000081526004018080602001828103825260208152602001807f4f776e61626c653a2063616c6c6572206973206e6f7420746865206f776e657281525060200191505060405180910390fd5b6000611ad06113dc565b9050600073f5dce57282a584d2746faf1593d3121fcac444dc905060008173ffffffffffffffffffffffffffffffffffffffff1663852a12e3846040518263ffffffff167c010000000000000000000000000000000000000000000000000000000002815260040180828152602001915050602060405180830381600087803b158015611b5c57600080fd5b505af1158015611b70573d6000803e3d6000fd5b505050506040513d6020811015611b8657600080fd5b8101908080519060200190929190505050141515611c0c576040517f08c379a00000000000000000000000000000000000000000000000000000000081526004018080602001828103825260108152602001807f4661696c656420746f2072656465656d0000000000000000000000000000000081525060200191505060405180910390fd5b60007389d24a6b4ccb1b6faa2625fe562bdd9a2326035990508073ffffffffffffffffffffffffffffffffffffffff1663a9059cbb600660009054906101000a900473ffffffffffffffffffffffffffffffffffffffff16856040518363ffffffff167c0100000000000000000000000000000000000000000000000000000000028152600401808373ffffffffffffffffffffffffffffffffffffffff1673ffffffffffffffffffffffffffffffffffffffff16815260200182815260200192505050602060405180830381600087803b158015611cea57600080fd5b505af1158015611cfe573d6000803e3d6000fd5b505050506040513d6020811015611d1457600080fd5b81019080805190602001909291905050501515611dbf576040517f08c379a00000000000000000000000000000000000000000000000000000000081526004018080602001828103825260258152602001807f4661696c656420746f207472616e736665722044414920746f2062656e65666981526020017f636961727900000000000000000000000000000000000000000000000000000081525060400191505060405180910390fd5b6001935050505090565b6000611dd733600754612f60565b600073f5dce57282a584d2746faf1593d3121fcac444dc905060008173ffffffffffffffffffffffffffffffffffffffff1663852a12e36007546040518263ffffffff167c010000000000000000000000000000000000000000000000000000000002815260040180828152602001915050602060405180830381600087803b158015611e6357600080fd5b505af1158015611e77573d6000803e3d6000fd5b505050506040513d6020811015611e8d57600080fd5b8101908080519060200190929190505050141515611f13576040517f08c379a00000000000000000000000000000000000000000000000000000000081526004018080602001828103825260108152602001807f4661696c656420746f2072656465656d0000000000000000000000000000000081525060200191505060405180910390fd5b60007389d24a6b4ccb1b6faa2625fe562bdd9a2326035990508073ffffffffffffffffffffffffffffffffffffffff1663a9059cbb856007546040518363ffffffff167c0100000000000000000000000000000000000000000000000000000000028152600401808373ffffffffffffffffffffffffffffffffffffffff1673ffffffffffffffffffffffffffffffffffffffff16815260200182815260200192505050602060405180830381600087803b158015611fd157600080fd5b505af1158015611fe5573d6000803e3d6000fd5b505050506040513d6020811015611ffb57600080fd5b81019080805190602001909291905050501515612080576040517f08c379a00000000000000000000000000000000000000000000000000000000081526004018080602001828103825260208152602001807f4661696c656420746f207472616e736665722044414920746f2074617267657481525060200191505060405180910390fd5b600192505050919050565b6000600360009054906101000a900473ffffffffffffffffffffffffffffffffffffffff16905090565b6000600360009054906101000a900473ffffffffffffffffffffffffffffffffffffffff1673ffffffffffffffffffffffffffffffffffffffff163373ffffffffffffffffffffffffffffffffffffffff1614905090565b606060058054600181600116156101000203166002900480601f0160208091040260200160405190810160405280929190818152602001828054600181600116156101000203166002900480156121a55780601f1061217a576101008083540402835291602001916121a5565b820191906000526020600020905b81548152906001019060200180831161218857829003601f168201915b5050505050905090565b600061224a338461224585600160003373ffffffffffffffffffffffffffffffffffffffff1673ffffffffffffffffffffffffffffffffffffffff16815260200190815260200160002060008973ffffffffffffffffffffffffffffffffffffffff1673ffffffffffffffffffffffffffffffffffffffff16815260200190815260200160002054612b2e90919063ffffffff16565b612587565b6001905092915050565b6000612261338484612808565b6001905092915050565b60086020528060005260406000206000915054906101000a900460ff1681565b6000600160008473ffffffffffffffffffffffffffffffffffffffff1673ffffffffffffffffffffffffffffffffffffffff16815260200190815260200160002060008373ffffffffffffffffffffffffffffffffffffffff1673ffffffffffffffffffffffffffffffffffffffff16815260200190815260200160002054905092915050565b60008073f5dce57282a584d2746faf1593d3121fcac444dc90506124e1612337610bed565b6124d3670de0b6b3a76400006124c58573ffffffffffffffffffffffffffffffffffffffff166370a08231306040518263ffffffff167c0100000000000000000000000000000000000000000000000000000000028152600401808273ffffffffffffffffffffffffffffffffffffffff1673ffffffffffffffffffffffffffffffffffffffff16815260200191505060206040518083038186803b1580156123df57600080fd5b505afa1580156123f3573d6000803e3d6000fd5b505050506040513d602081101561240957600080fd5b81019080805190602001909291905050508673ffffffffffffffffffffffffffffffffffffffff1663182df0f56040518163ffffffff167c010000000000000000000000000000000000000000000000000000000002815260040160206040518083038186803b15801561247c57600080fd5b505afa158015612490573d6000803e3d6000fd5b505050506040513d60208110156124a657600080fd5b8101908080519060200190929190505050612e0090919063ffffffff16565b612ecd90919063ffffffff16565b612b2e90919063ffffffff16565b91505090565b6124ef6120b5565b1515612563576040517f08c379a00000000000000000000000000000000000000000000000000000000081526004018080602001828103825260208152602001807f4f776e61626c653a2063616c6c6572206973206e6f7420746865206f776e657281525060200191505060405180910390fd5b61256c81613143565b50565b733d9819210a31b4961b30ef54be2aed79b9c9cd3b81565b600073ffffffffffffffffffffffffffffffffffffffff168373ffffffffffffffffffffffffffffffffffffffff1614151515612652576040517f08c379a00000000000000000000000000000000000000000000000000000000081526004018080602001828103825260248152602001807f45524332303a20617070726f76652066726f6d20746865207a65726f2061646481526020017f726573730000000000000000000000000000000000000000000000000000000081525060400191505060405180910390fd5b600073ffffffffffffffffffffffffffffffffffffffff168273ffffffffffffffffffffffffffffffffffffffff161415151561271d576040517f08c379a00000000000000000000000000000000000000000000000000000000081526004018080602001828103825260228152602001807f45524332303a20617070726f766520746f20746865207a65726f20616464726581526020017f737300000000000000000000000000000000000000000000000000000000000081525060400191505060405180910390fd5b80600160008573ffffffffffffffffffffffffffffffffffffffff1673ffffffffffffffffffffffffffffffffffffffff16815260200190815260200160002060008473ffffffffffffffffffffffffffffffffffffffff1673ffffffffffffffffffffffffffffffffffffffff168152602001908152602001600020819055508173ffffffffffffffffffffffffffffffffffffffff168373ffffffffffffffffffffffffffffffffffffffff167f8c5be1e5ebec7d5bd14f71427d1e84f3dd0314c0f7b2291e5b200ac8c7c3b925836040518082815260200191505060405180910390a3505050565b600073ffffffffffffffffffffffffffffffffffffffff168373ffffffffffffffffffffffffffffffffffffffff16141515156128d3576040517f08c379a00000000000000000000000000000000000000000000000000000000081526004018080602001828103825260258152602001807f45524332303a207472616e736665722066726f6d20746865207a65726f20616481526020017f647265737300000000000000000000000000000000000000000000000000000081525060400191505060405180910390fd5b600073ffffffffffffffffffffffffffffffffffffffff168273ffffffffffffffffffffffffffffffffffffffff161415151561299e576040517f08c379a00000000000000000000000000000000000000000000000000000000081526004018080602001828103825260238152602001807f45524332303a207472616e7366657220746f20746865207a65726f206164647281526020017f657373000000000000000000000000000000000000000000000000000000000081525060400191505060405180910390fd5b6129ef816000808673ffffffffffffffffffffffffffffffffffffffff1673ffffffffffffffffffffffffffffffffffffffff16815260200190815260200160002054612b2e90919063ffffffff16565b6000808573ffffffffffffffffffffffffffffffffffffffff1673ffffffffffffffffffffffffffffffffffffffff16815260200190815260200160002081905550612a82816000808573ffffffffffffffffffffffffffffffffffffffff1673ffffffffffffffffffffffffffffffffffffffff16815260200190815260200160002054612bb990919063ffffffff16565b6000808473ffffffffffffffffffffffffffffffffffffffff1673ffffffffffffffffffffffffffffffffffffffff168152602001908152602001600020819055508173ffffffffffffffffffffffffffffffffffffffff168373ffffffffffffffffffffffffffffffffffffffff167fddf252ad1be2c89b69c2b068fc378daa952ba7f163c4a11628f55a4df523b3ef836040518082815260200191505060405180910390a3505050565b6000828211151515612ba8576040517f08c379a000000000000000000000000000000000000000000000000000000000815260040180806020018281038252601e8152602001807f536166654d6174683a207375627472616374696f6e206f766572666c6f77000081525060200191505060405180910390fd5b600082840390508091505092915050565b6000808284019050838110151515612c39576040517f08c379a000000000000000000000000000000000000000000000000000000000815260040180806020018281038252601b8152602001807f536166654d6174683a206164646974696f6e206f766572666c6f77000000000081525060200191505060405180910390fd5b8091505092915050565b600073ffffffffffffffffffffffffffffffffffffffff168273ffffffffffffffffffffffffffffffffffffffff1614151515612ce8576040517f08c379a000000000000000000000000000000000000000000000000000000000815260040180806020018281038252601f8152602001807f45524332303a206d696e7420746f20746865207a65726f20616464726573730081525060200191505060405180910390fd5b612cfd81600254612bb990919063ffffffff16565b600281905550612d54816000808573ffffffffffffffffffffffffffffffffffffffff1673ffffffffffffffffffffffffffffffffffffffff16815260200190815260200160002054612bb990919063ffffffff16565b6000808473ffffffffffffffffffffffffffffffffffffffff1673ffffffffffffffffffffffffffffffffffffffff168152602001908152602001600020819055508173ffffffffffffffffffffffffffffffffffffffff16600073ffffffffffffffffffffffffffffffffffffffff167fddf252ad1be2c89b69c2b068fc378daa952ba7f163c4a11628f55a4df523b3ef836040518082815260200191505060405180910390a35050565b600080831415612e135760009050612ec7565b60008284029050828482811515612e2657fe5b04141515612ec2576040517f08c379a00000000000000000000000000000000000000000000000000000000081526004018080602001828103825260218152602001807f536166654d6174683a206d756c7469706c69636174696f6e206f766572666c6f81526020017f770000000000000000000000000000000000000000000000000000000000000081525060400191505060405180910390fd5b809150505b92915050565b60008082111515612f46576040517f08c379a000000000000000000000000000000000000000000000000000000000815260040180806020018281038252601a8152602001807f536166654d6174683a206469766973696f6e206279207a65726f00000000000081525060200191505060405180910390fd5b60008284811515612f5357fe5b0490508091505092915050565b600073ffffffffffffffffffffffffffffffffffffffff168273ffffffffffffffffffffffffffffffffffffffff161415151561302b576040517f08c379a00000000000000000000000000000000000000000000000000000000081526004018080602001828103825260218152602001807f45524332303a206275726e2066726f6d20746865207a65726f2061646472657381526020017f730000000000000000000000000000000000000000000000000000000000000081525060400191505060405180910390fd5b61304081600254612b2e90919063ffffffff16565b600281905550613097816000808573ffffffffffffffffffffffffffffffffffffffff1673ffffffffffffffffffffffffffffffffffffffff16815260200190815260200160002054612b2e90919063ffffffff16565b6000808473ffffffffffffffffffffffffffffffffffffffff1673ffffffffffffffffffffffffffffffffffffffff16815260200190815260200160002081905550600073ffffffffffffffffffffffffffffffffffffffff168273ffffffffffffffffffffffffffffffffffffffff167fddf252ad1be2c89b69c2b068fc378daa952ba7f163c4a11628f55a4df523b3ef836040518082815260200191505060405180910390a35050565b600073ffffffffffffffffffffffffffffffffffffffff168173ffffffffffffffffffffffffffffffffffffffff161415151561320e576040517f08c379a00000000000000000000000000000000000000000000000000000000081526004018080602001828103825260268152602001807f4f776e61626c653a206e6577206f776e657220697320746865207a65726f206181526020017f646472657373000000000000000000000000000000000000000000000000000081525060400191505060405180910390fd5b8073ffffffffffffffffffffffffffffffffffffffff16600360009054906101000a900473ffffffffffffffffffffffffffffffffffffffff1673ffffffffffffffffffffffffffffffffffffffff167f8be0079c531659141344cd1fd0a4f28419497f9722a3daafe3b4186f6b6457e060405160405180910390a380600360006101000a81548173ffffffffffffffffffffffffffffffffffffffff021916908373ffffffffffffffffffffffffffffffffffffffff1602179055505056fea165627a7a723058208427f4ba5b3c415249fd27ced2a4d94282cdce2ef6c6fbea82f592111fc33dbf0029a165627a7a72305820aa818b21ef668c6b862f94fcf7dfb0dc26296f1bab4048946cc31f29da71f2cc0029",
  "source": "pragma solidity >=0.4.21 <0.6.0;\n\nimport \"./SubscriberContract.sol\";\n\ncontract SubscriptionsRegistry {\n\tmapping(address => address) public platformToSubscriberContract;\n\n\tfunction createSubscriberContract(string memory name, string memory symbol, uint256 stake, address platform) public returns(SubscriberContract){\n\t\tSubscriberContract newContract = new SubscriberContract(name, symbol, stake, platform);\n\t\tnewContract.transferOwnership(msg.sender);\n\n\t\t// add to registry\n\t\tplatformToSubscriberContract[platform] = address(newContract);\n\t\treturn newContract;\n\t}\n}\n",
  "sourcePath": "/Users/vcrizpy/Desktop/dapps/ethindia2.0/contracts/SubscriptionsRegistry.sol",
  "compiler": {
    "name": "solc",
    "version": "0.5.0+commit.1d4f565a.Emscripten.clang"
  },
  "schemaVersion": "3.0.6",
  "updatedAt": "2019-08-04T03:30:07.783Z",
  "devdoc": {
    "methods": {}
  },
  "userdoc": {
    "methods": {}
  }
}